{
  "transactions": [
    {
      "hash": "0xd65bb889346d104ee7205bd1a9d9bae03263ceee38eb3b2a83617e509cda033f",
      "transactionType": "CALL",
      "contractName": null,
      "contractAddress": "0x489d47e592639ba11107e84dd6cca08f0892e27d",
      "function": "safeTransferFrom(address,address,uint256,uint256,bytes)",
      "arguments": [
        "0x0de82DCC40B8468639251b089f8b4A4400022e04",
        "0x0247F66d1a3029FB43A02481c7a2E03CD158adA7",
        "2",
        "500",
        "0x"
      ],
      "transaction": {
        "from": "0x0de82dcc40b8468639251b089f8b4a4400022e04",
        "to": "0x489d47e592639ba11107e84dd6cca08f0892e27d",
        "gas": "0x1514b",
        "value": "0x0",
        "input": "0xf242432a0000000000000000000000000de82dcc40b8468639251b089f8b4a4400022e040000000000000000000000000247f66d1a3029fb43a02481c7a2e03cd158ada7000000000000000000000000000000000000000000000000000000000000000200000000000000000000000000000000000000000000000000000000000001f400000000000000000000000000000000000000000000000000000000000000a00000000000000000000000000000000000000000000000000000000000000000",
        "nonce": "0xc",
        "chainId": "0xe9fe"
      },
      "additionalContracts": [],
      "isFixedGasLimit": false
    },
    {
      "hash": null,
      "transactionType": "CALL",
      "contractName": null,
      "contractAddress": "0x489d47e592639ba11107e84dd6cca08f0892e27d",
      "function": "safeTransferFrom(address,address,uint256,uint256,bytes)",
      "arguments": [
        "0x0de82DCC40B8468639251b089f8b4A4400022e04",
        "0x0247F66d1a3029FB43A02481c7a2E03CD158adA7",
        "3",
        "500",
        "0x"
      ],
      "transaction": {
        "from": "0x0de82dcc40b8468639251b089f8b4a4400022e04",
        "to": "0x489d47e592639ba11107e84dd6cca08f0892e27d",
        "gas": "0x1514b",
        "value": "0x0",
        "input": "0xf242432a0000000000000000000000000de82dcc40b8468639251b089f8b4a4400022e040000000000000000000000000247f66d1a3029fb43a02481c7a2e03cd158ada7000000000000000000000000000000000000000000000000000000000000000300000000000000000000000000000000000000000000000000000000000001f400000000000000000000000000000000000000000000000000000000000000a00000000000000000000000000000000000000000000000000000000000000000",
        "nonce": "0xd",
        "chainId": "0xe9fe"
      },
      "additionalContracts": [],
      "isFixedGasLimit": false
    }
  ],
  "receipts": [],
  "libraries": [],
  "pending": [],
  "returns": {
    "0": {
      "internal_type": "address",
      "value": "0x76cfdE04F691B93c9993Be24d5FE7667E7A8782C"
    },
    "1": {
      "internal_type": "address",
      "value": "0x06CE5B276a53e072dc3144D3746e57fD2CA6a1B4"
    },
    "2": {
      "internal_type": "address",
      "value": "0x489d47E592639Ba11107E84dd6CCA08F0892E27d"
    },
    "3": {
      "internal_type": "address",
      "value": "0xE2c149c4cb26F137e7eab87E7675bE71E53d7071"
    },
    "4": {
      "internal_type": "address",
      "value": "0x0247F66d1a3029FB43A02481c7a2E03CD158adA7"
    }
  },
  "timestamp": 1717349541,
  "chain": 59902,
  "commit": "c187614"
}